{
    "_format": "hh-sol-artifact-1",
    "contractName": "LiquidityLock",
    "sourceName": "contracts/LiquidityLock.sol",
    "abi": [
        {
            "inputs": [],
            "stateMutability": "nonpayable",
            "type": "constructor"
        },
        {
            "anonymous": false,
            "inputs": [
                {
                    "indexed": true,
                    "internalType": "address",
                    "name": "owner",
                    "type": "address"
                },
                {
                    "indexed": true,
                    "internalType": "address",
                    "name": "token",
                    "type": "address"
                },
                {
                    "indexed": false,
                    "internalType": "uint256",
                    "name": "amount",
                    "type": "uint256"
                },
                {
                    "indexed": false,
                    "internalType": "uint256",
                    "name": "unlockTime",
                    "type": "uint256"
                },
                {
                    "indexed": false,
                    "internalType": "uint256",
                    "name": "lockIndex",
                    "type": "uint256"
                }
            ],
            "name": "TokensLocked",
            "type": "event"
        },
        {
            "anonymous": false,
            "inputs": [
                {
                    "indexed": true,
                    "internalType": "address",
                    "name": "owner",
                    "type": "address"
                },
                {
                    "indexed": true,
                    "internalType": "address",
                    "name": "token",
                    "type": "address"
                },
                {
                    "indexed": false,
                    "internalType": "uint256",
                    "name": "amount",
                    "type": "uint256"
                }
            ],
            "name": "TokensWithdrawn",
            "type": "event"
        },
        {
            "inputs": [
                {
                    "internalType": "address",
                    "name": "owner",
                    "type": "address"
                },
                {
                    "internalType": "uint256",
                    "name": "lockIndex",
                    "type": "uint256"
                }
            ],
            "name": "getLock",
            "outputs": [
                {
                    "components": [
                        {
                            "internalType": "address",
                            "name": "token",
                            "type": "address"
                        },
                        {
                            "internalType": "address",
                            "name": "owner",
                            "type": "address"
                        },
                        {
                            "internalType": "uint256",
                            "name": "amount",
                            "type": "uint256"
                        },
                        {
                            "internalType": "uint256",
                            "name": "unlockTime",
                            "type": "uint256"
                        },
                        {
                            "internalType": "bool",
                            "name": "withdrawn",
                            "type": "bool"
                        }
                    ],
                    "internalType": "struct LiquidityLock.Lock",
                    "name": "",
                    "type": "tuple"
                }
            ],
            "stateMutability": "view",
            "type": "function"
        },
        {
            "inputs": [
                {
                    "internalType": "address",
                    "name": "owner",
                    "type": "address"
                }
            ],
            "name": "getLocks",
            "outputs": [
                {
                    "components": [
                        {
                            "internalType": "address",
                            "name": "token",
                            "type": "address"
                        },
                        {
                            "internalType": "address",
                            "name": "owner",
                            "type": "address"
                        },
                        {
                            "internalType": "uint256",
                            "name": "amount",
                            "type": "uint256"
                        },
                        {
                            "internalType": "uint256",
                            "name": "unlockTime",
                            "type": "uint256"
                        },
                        {
                            "internalType": "bool",
                            "name": "withdrawn",
                            "type": "bool"
                        }
                    ],
                    "internalType": "struct LiquidityLock.Lock[]",
                    "name": "",
                    "type": "tuple[]"
                }
            ],
            "stateMutability": "view",
            "type": "function"
        },
        {
            "inputs": [
                {
                    "internalType": "address",
                    "name": "tokenAddress",
                    "type": "address"
                },
                {
                    "internalType": "uint256",
                    "name": "amount",
                    "type": "uint256"
                },
                {
                    "internalType": "uint256",
                    "name": "unlockTime",
                    "type": "uint256"
                }
            ],
            "name": "lockTokens",
            "outputs": [],
            "stateMutability": "nonpayable",
            "type": "function"
        },
        {
            "inputs": [
                {
                    "internalType": "uint256",
                    "name": "lockIndex",
                    "type": "uint256"
                }
            ],
            "name": "withdrawTokens",
            "outputs": [],
            "stateMutability": "nonpayable",
            "type": "function"
        }
    ],
    "bytecode": "0x608060405234801561001057600080fd5b506001600081905550611ac4806100286000396000f3fe608060405234801561001057600080fd5b506004361061004c5760003560e01c80631208a25614610051578063315a095d14610081578063719f30891461009d578063a25983e5146100cd575b600080fd5b61006b60048036038101906100669190610fcb565b6100e9565b60405161007891906110ac565b60405180910390f35b61009b600480360381019061009691906110c7565b6102c2565b005b6100b760048036038101906100b291906110f4565b6105e5565b6040516100c49190611238565b60405180910390f35b6100e760048036038101906100e2919061125a565b61075e565b005b6100f1610ed5565b600160008473ffffffffffffffffffffffffffffffffffffffff1673ffffffffffffffffffffffffffffffffffffffff168152602001908152602001600020805490508210610175576040517f08c379a000000000000000000000000000000000000000000000000000000000815260040161016c9061130a565b60405180910390fd5b600160008473ffffffffffffffffffffffffffffffffffffffff1673ffffffffffffffffffffffffffffffffffffffff16815260200190815260200160002082815481106101c6576101c561132a565b5b90600052602060002090600502016040518060a00160405290816000820160009054906101000a900473ffffffffffffffffffffffffffffffffffffffff1673ffffffffffffffffffffffffffffffffffffffff1673ffffffffffffffffffffffffffffffffffffffff1681526020016001820160009054906101000a900473ffffffffffffffffffffffffffffffffffffffff1673ffffffffffffffffffffffffffffffffffffffff1673ffffffffffffffffffffffffffffffffffffffff16815260200160028201548152602001600382015481526020016004820160009054906101000a900460ff161515151581525050905092915050565b6102ca610ad8565b600160003373ffffffffffffffffffffffffffffffffffffffff1673ffffffffffffffffffffffffffffffffffffffff16815260200190815260200160002080549050811061034e576040517f08c379a00000000000000000000000000000000000000000000000000000000081526004016103459061130a565b60405180910390fd5b6000600160003373ffffffffffffffffffffffffffffffffffffffff1673ffffffffffffffffffffffffffffffffffffffff16815260200190815260200160002082815481106103a1576103a061132a565b5b906000526020600020906005020190503373ffffffffffffffffffffffffffffffffffffffff168160010160009054906101000a900473ffffffffffffffffffffffffffffffffffffffff1673ffffffffffffffffffffffffffffffffffffffff1614610443576040517f08c379a000000000000000000000000000000000000000000000000000000000815260040161043a906113a5565b60405180910390fd5b8060040160009054906101000a900460ff1615610495576040517f08c379a000000000000000000000000000000000000000000000000000000000815260040161048c90611411565b60405180910390fd5b80600301544210156104dc576040517f08c379a00000000000000000000000000000000000000000000000000000000081526004016104d39061147d565b60405180910390fd5b60018160040160006101000a81548160ff02191690831515021790555061054c3382600201548360000160009054906101000a900473ffffffffffffffffffffffffffffffffffffffff1673ffffffffffffffffffffffffffffffffffffffff16610b279092919063ffffffff16565b8060000160009054906101000a900473ffffffffffffffffffffffffffffffffffffffff1673ffffffffffffffffffffffffffffffffffffffff163373ffffffffffffffffffffffffffffffffffffffff167f6337ed398c0e8467698c581374fdce4db14922df487b5a39483079f5f59b60a483600201546040516105d191906114ac565b60405180910390a3506105e2610bad565b50565b6060600160008373ffffffffffffffffffffffffffffffffffffffff1673ffffffffffffffffffffffffffffffffffffffff168152602001908152602001600020805480602002602001604051908101604052809291908181526020016000905b8282101561075357838290600052602060002090600502016040518060a00160405290816000820160009054906101000a900473ffffffffffffffffffffffffffffffffffffffff1673ffffffffffffffffffffffffffffffffffffffff1673ffffffffffffffffffffffffffffffffffffffff1681526020016001820160009054906101000a900473ffffffffffffffffffffffffffffffffffffffff1673ffffffffffffffffffffffffffffffffffffffff1673ffffffffffffffffffffffffffffffffffffffff16815260200160028201548152602001600382015481526020016004820160009054906101000a900460ff16151515158152505081526020019060010190610646565b505050509050919050565b610766610ad8565b600073ffffffffffffffffffffffffffffffffffffffff168373ffffffffffffffffffffffffffffffffffffffff16036107d5576040517f08c379a00000000000000000000000000000000000000000000000000000000081526004016107cc90611513565b60405180910390fd5b60008211610818576040517f08c379a000000000000000000000000000000000000000000000000000000000815260040161080f9061157f565b60405180910390fd5b42811161085a576040517f08c379a000000000000000000000000000000000000000000000000000000000815260040161085190611611565b60405180910390fd5b600083905061088c3330858473ffffffffffffffffffffffffffffffffffffffff16610bb7909392919063ffffffff16565b600160003373ffffffffffffffffffffffffffffffffffffffff1673ffffffffffffffffffffffffffffffffffffffff1681526020019081526020016000206040518060a001604052808673ffffffffffffffffffffffffffffffffffffffff1681526020013373ffffffffffffffffffffffffffffffffffffffff16815260200185815260200184815260200160001515815250908060018154018082558091505060019003906000526020600020906005020160009091909190915060008201518160000160006101000a81548173ffffffffffffffffffffffffffffffffffffffff021916908373ffffffffffffffffffffffffffffffffffffffff16021790555060208201518160010160006101000a81548173ffffffffffffffffffffffffffffffffffffffff021916908373ffffffffffffffffffffffffffffffffffffffff160217905550604082015181600201556060820151816003015560808201518160040160006101000a81548160ff0219169083151502179055505050600060018060003373ffffffffffffffffffffffffffffffffffffffff1673ffffffffffffffffffffffffffffffffffffffff16815260200190815260200160002080549050610a5e9190611660565b90508473ffffffffffffffffffffffffffffffffffffffff163373ffffffffffffffffffffffffffffffffffffffff167fa6782d3322abbfbe850e6d5c5c78e8e1df603ea07608bb9a62dd83f40d4feccc868685604051610ac193929190611694565b60405180910390a35050610ad3610bad565b505050565b600260005403610b1d576040517f08c379a0000000000000000000000000000000000000000000000000000000008152600401610b1490611717565b60405180910390fd5b6002600081905550565b610ba88363a9059cbb60e01b8484604051602401610b46929190611746565b604051602081830303815290604052907bffffffffffffffffffffffffffffffffffffffffffffffffffffffff19166020820180517bffffffffffffffffffffffffffffffffffffffffffffffffffffffff8381831617835250505050610c40565b505050565b6001600081905550565b610c3a846323b872dd60e01b858585604051602401610bd89392919061176f565b604051602081830303815290604052907bffffffffffffffffffffffffffffffffffffffffffffffffffffffff19166020820180517bffffffffffffffffffffffffffffffffffffffffffffffffffffffff8381831617835250505050610c40565b50505050565b6000610ca2826040518060400160405280602081526020017f5361666545524332303a206c6f772d6c6576656c2063616c6c206661696c65648152508573ffffffffffffffffffffffffffffffffffffffff16610d089092919063ffffffff16565b9050600081511480610cc4575080806020019051810190610cc391906117d2565b5b610d03576040517f08c379a0000000000000000000000000000000000000000000000000000000008152600401610cfa90611871565b60405180910390fd5b505050565b6060610d178484600085610d20565b90509392505050565b606082471015610d65576040517f08c379a0000000000000000000000000000000000000000000000000000000008152600401610d5c90611903565b60405180910390fd5b6000808673ffffffffffffffffffffffffffffffffffffffff168587604051610d8e9190611994565b60006040518083038185875af1925050503d8060008114610dcb576040519150601f19603f3d011682016040523d82523d6000602084013e610dd0565b606091505b5091509150610de187838387610ded565b92505050949350505050565b60608315610e4f576000835103610e4757610e0785610e62565b610e46576040517f08c379a0000000000000000000000000000000000000000000000000000000008152600401610e3d906119f7565b60405180910390fd5b5b829050610e5a565b610e598383610e85565b5b949350505050565b6000808273ffffffffffffffffffffffffffffffffffffffff163b119050919050565b600082511115610e985781518083602001fd5b806040517f08c379a0000000000000000000000000000000000000000000000000000000008152600401610ecc9190611a6c565b60405180910390fd5b6040518060a00160405280600073ffffffffffffffffffffffffffffffffffffffff168152602001600073ffffffffffffffffffffffffffffffffffffffff16815260200160008152602001600081526020016000151581525090565b600080fd5b600073ffffffffffffffffffffffffffffffffffffffff82169050919050565b6000610f6282610f37565b9050919050565b610f7281610f57565b8114610f7d57600080fd5b50565b600081359050610f8f81610f69565b92915050565b6000819050919050565b610fa881610f95565b8114610fb357600080fd5b50565b600081359050610fc581610f9f565b92915050565b60008060408385031215610fe257610fe1610f32565b5b6000610ff085828601610f80565b925050602061100185828601610fb6565b9150509250929050565b61101481610f57565b82525050565b61102381610f95565b82525050565b60008115159050919050565b61103e81611029565b82525050565b60a08201600082015161105a600085018261100b565b50602082015161106d602085018261100b565b506040820151611080604085018261101a565b506060820151611093606085018261101a565b5060808201516110a66080850182611035565b50505050565b600060a0820190506110c16000830184611044565b92915050565b6000602082840312156110dd576110dc610f32565b5b60006110eb84828501610fb6565b91505092915050565b60006020828403121561110a57611109610f32565b5b600061111884828501610f80565b91505092915050565b600081519050919050565b600082825260208201905092915050565b6000819050602082019050919050565b60a082016000820151611163600085018261100b565b506020820151611176602085018261100b565b506040820151611189604085018261101a565b50606082015161119c606085018261101a565b5060808201516111af6080850182611035565b50505050565b60006111c1838361114d565b60a08301905092915050565b6000602082019050919050565b60006111e582611121565b6111ef818561112c565b93506111fa8361113d565b8060005b8381101561122b57815161121288826111b5565b975061121d836111cd565b9250506001810190506111fe565b5085935050505092915050565b6000602082019050818103600083015261125281846111da565b905092915050565b60008060006060848603121561127357611272610f32565b5b600061128186828701610f80565b935050602061129286828701610fb6565b92505060406112a386828701610fb6565b9150509250925092565b600082825260208201905092915050565b7f496e76616c6964206c6f636b20696e6465780000000000000000000000000000600082015250565b60006112f46012836112ad565b91506112ff826112be565b602082019050919050565b60006020820190508181036000830152611323816112e7565b9050919050565b7f4e487b7100000000000000000000000000000000000000000000000000000000600052603260045260246000fd5b7f4e6f7420746865206c6f636b206f776e65720000000000000000000000000000600082015250565b600061138f6012836112ad565b915061139a82611359565b602082019050919050565b600060208201905081810360008301526113be81611382565b9050919050565b7f416c72656164792077697468647261776e000000000000000000000000000000600082015250565b60006113fb6011836112ad565b9150611406826113c5565b602082019050919050565b6000602082019050818103600083015261142a816113ee565b9050919050565b7f546f6b656e7320617265207374696c6c206c6f636b6564000000000000000000600082015250565b60006114676017836112ad565b915061147282611431565b602082019050919050565b600060208201905081810360008301526114968161145a565b9050919050565b6114a681610f95565b82525050565b60006020820190506114c1600083018461149d565b92915050565b7f496e76616c696420746f6b656e20616464726573730000000000000000000000600082015250565b60006114fd6015836112ad565b9150611508826114c7565b602082019050919050565b6000602082019050818103600083015261152c816114f0565b9050919050565b7f416d6f756e74206d7573742062652067726561746572207468616e2030000000600082015250565b6000611569601d836112ad565b915061157482611533565b602082019050919050565b600060208201905081810360008301526115988161155c565b9050919050565b7f556e6c6f636b2074696d65206d75737420626520696e2074686520667574757260008201527f6500000000000000000000000000000000000000000000000000000000000000602082015250565b60006115fb6021836112ad565b91506116068261159f565b604082019050919050565b6000602082019050818103600083015261162a816115ee565b9050919050565b7f4e487b7100000000000000000000000000000000000000000000000000000000600052601160045260246000fd5b600061166b82610f95565b915061167683610f95565b925082820390508181111561168e5761168d611631565b5b92915050565b60006060820190506116a9600083018661149d565b6116b6602083018561149d565b6116c3604083018461149d565b949350505050565b7f5265656e7472616e637947756172643a207265656e7472616e742063616c6c00600082015250565b6000611701601f836112ad565b915061170c826116cb565b602082019050919050565b60006020820190508181036000830152611730816116f4565b9050919050565b61174081610f57565b82525050565b600060408201905061175b6000830185611737565b611768602083018461149d565b9392505050565b60006060820190506117846000830186611737565b6117916020830185611737565b61179e604083018461149d565b949350505050565b6117af81611029565b81146117ba57600080fd5b50565b6000815190506117cc816117a6565b92915050565b6000602082840312156117e8576117e7610f32565b5b60006117f6848285016117bd565b91505092915050565b7f5361666545524332303a204552433230206f7065726174696f6e20646964206e60008201527f6f74207375636365656400000000000000000000000000000000000000000000602082015250565b600061185b602a836112ad565b9150611866826117ff565b604082019050919050565b6000602082019050818103600083015261188a8161184e565b9050919050565b7f416464726573733a20696e73756666696369656e742062616c616e636520666f60008201527f722063616c6c0000000000000000000000000000000000000000000000000000602082015250565b60006118ed6026836112ad565b91506118f882611891565b604082019050919050565b6000602082019050818103600083015261191c816118e0565b9050919050565b600081519050919050565b600081905092915050565b60005b8381101561195757808201518184015260208101905061193c565b60008484015250505050565b600061196e82611923565b611978818561192e565b9350611988818560208601611939565b80840191505092915050565b60006119a08284611963565b915081905092915050565b7f416464726573733a2063616c6c20746f206e6f6e2d636f6e7472616374000000600082015250565b60006119e1601d836112ad565b91506119ec826119ab565b602082019050919050565b60006020820190508181036000830152611a10816119d4565b9050919050565b600081519050919050565b6000601f19601f8301169050919050565b6000611a3e82611a17565b611a4881856112ad565b9350611a58818560208601611939565b611a6181611a22565b840191505092915050565b60006020820190508181036000830152611a868184611a33565b90509291505056fea26469706673582212205d6d62418f609346e59ee1fae8cc0e94128417a180d2b27d3e93f18f45ae2dd764736f6c63430008130033",
    "linkReferences": {},
    "deployedLinkReferences": {}
}