{
  "_format": "hh-sol-artifact-1",
  "contractName": "SampleToken",
  "sourceName": "contracts/SampleToken.sol",
  "abi": [
    {
      "inputs": [
        {
          "internalType": "string",
          "name": "name",
          "type": "string"
        },
        {
          "internalType": "string",
          "name": "symbol",
          "type": "string"
        },
        {
          "internalType": "uint256",
          "name": "cap",
          "type": "uint256"
        },
        {
          "internalType": "uint256",
          "name": "initialSupply",
          "type": "uint256"
        }
      ],
      "stateMutability": "nonpayable",
      "type": "constructor"
    },
    {
      "anonymous": false,
      "inputs": [
        {
          "indexed": true,
          "internalType": "address",
          "name": "owner",
          "type": "address"
        },
        {
          "indexed": true,
          "internalType": "address",
          "name": "spender",
          "type": "address"
        },
        {
          "indexed": false,
          "internalType": "uint256",
          "name": "value",
          "type": "uint256"
        }
      ],
      "name": "Approval",
      "type": "event"
    },
    {
      "anonymous": false,
      "inputs": [
        {
          "indexed": false,
          "internalType": "address",
          "name": "account",
          "type": "address"
        }
      ],
      "name": "Paused",
      "type": "event"
    },
    {
      "anonymous": false,
      "inputs": [
        {
          "indexed": true,
          "internalType": "bytes32",
          "name": "role",
          "type": "bytes32"
        },
        {
          "indexed": true,
          "internalType": "bytes32",
          "name": "previousAdminRole",
          "type": "bytes32"
        },
        {
          "indexed": true,
          "internalType": "bytes32",
          "name": "newAdminRole",
          "type": "bytes32"
        }
      ],
      "name": "RoleAdminChanged",
      "type": "event"
    },
    {
      "anonymous": false,
      "inputs": [
        {
          "indexed": true,
          "internalType": "bytes32",
          "name": "role",
          "type": "bytes32"
        },
        {
          "indexed": true,
          "internalType": "address",
          "name": "account",
          "type": "address"
        },
        {
          "indexed": true,
          "internalType": "address",
          "name": "sender",
          "type": "address"
        }
      ],
      "name": "RoleGranted",
      "type": "event"
    },
    {
      "anonymous": false,
      "inputs": [
        {
          "indexed": true,
          "internalType": "bytes32",
          "name": "role",
          "type": "bytes32"
        },
        {
          "indexed": true,
          "internalType": "address",
          "name": "account",
          "type": "address"
        },
        {
          "indexed": true,
          "internalType": "address",
          "name": "sender",
          "type": "address"
        }
      ],
      "name": "RoleRevoked",
      "type": "event"
    },
    {
      "anonymous": false,
      "inputs": [
        {
          "indexed": true,
          "internalType": "address",
          "name": "account",
          "type": "address"
        }
      ],
      "name": "TokenPaused",
      "type": "event"
    },
    {
      "anonymous": false,
      "inputs": [
        {
          "indexed": true,
          "internalType": "address",
          "name": "account",
          "type": "address"
        }
      ],
      "name": "TokenUnpaused",
      "type": "event"
    },
    {
      "anonymous": false,
      "inputs": [
        {
          "indexed": true,
          "internalType": "address",
          "name": "from",
          "type": "address"
        },
        {
          "indexed": false,
          "internalType": "uint256",
          "name": "amount",
          "type": "uint256"
        }
      ],
      "name": "TokensBurned",
      "type": "event"
    },
    {
      "anonymous": false,
      "inputs": [
        {
          "indexed": true,
          "internalType": "address",
          "name": "to",
          "type": "address"
        },
        {
          "indexed": false,
          "internalType": "uint256",
          "name": "amount",
          "type": "uint256"
        }
      ],
      "name": "TokensMinted",
      "type": "event"
    },
    {
      "anonymous": false,
      "inputs": [
        {
          "indexed": true,
          "internalType": "address",
          "name": "from",
          "type": "address"
        },
        {
          "indexed": true,
          "internalType": "address",
          "name": "to",
          "type": "address"
        },
        {
          "indexed": false,
          "internalType": "uint256",
          "name": "value",
          "type": "uint256"
        }
      ],
      "name": "Transfer",
      "type": "event"
    },
    {
      "anonymous": false,
      "inputs": [
        {
          "indexed": false,
          "internalType": "address",
          "name": "account",
          "type": "address"
        }
      ],
      "name": "Unpaused",
      "type": "event"
    },
    {
      "inputs": [],
      "name": "DEFAULT_ADMIN_ROLE",
      "outputs": [
        {
          "internalType": "bytes32",
          "name": "",
          "type": "bytes32"
        }
      ],
      "stateMutability": "view",
      "type": "function"
    },
    {
      "inputs": [],
      "name": "MINTER_ROLE",
      "outputs": [
        {
          "internalType": "bytes32",
          "name": "",
          "type": "bytes32"
        }
      ],
      "stateMutability": "view",
      "type": "function"
    },
    {
      "inputs": [],
      "name": "PAUSER_ROLE",
      "outputs": [
        {
          "internalType": "bytes32",
          "name": "",
          "type": "bytes32"
        }
      ],
      "stateMutability": "view",
      "type": "function"
    },
    {
      "inputs": [
        {
          "internalType": "address",
          "name": "owner",
          "type": "address"
        },
        {
          "internalType": "address",
          "name": "spender",
          "type": "address"
        }
      ],
      "name": "allowance",
      "outputs": [
        {
          "internalType": "uint256",
          "name": "",
          "type": "uint256"
        }
      ],
      "stateMutability": "view",
      "type": "function"
    },
    {
      "inputs": [
        {
          "internalType": "address",
          "name": "spender",
          "type": "address"
        },
        {
          "internalType": "uint256",
          "name": "amount",
          "type": "uint256"
        }
      ],
      "name": "approve",
      "outputs": [
        {
          "internalType": "bool",
          "name": "",
          "type": "bool"
        }
      ],
      "stateMutability": "nonpayable",
      "type": "function"
    },
    {
      "inputs": [
        {
          "internalType": "address",
          "name": "account",
          "type": "address"
        }
      ],
      "name": "balanceOf",
      "outputs": [
        {
          "internalType": "uint256",
          "name": "",
          "type": "uint256"
        }
      ],
      "stateMutability": "view",
      "type": "function"
    },
    {
      "inputs": [
        {
          "internalType": "uint256",
          "name": "amount",
          "type": "uint256"
        }
      ],
      "name": "burn",
      "outputs": [],
      "stateMutability": "nonpayable",
      "type": "function"
    },
    {
      "inputs": [
        {
          "internalType": "address",
          "name": "account",
          "type": "address"
        },
        {
          "internalType": "uint256",
          "name": "amount",
          "type": "uint256"
        }
      ],
      "name": "burnFrom",
      "outputs": [],
      "stateMutability": "nonpayable",
      "type": "function"
    },
    {
      "inputs": [],
      "name": "cap",
      "outputs": [
        {
          "internalType": "uint256",
          "name": "",
          "type": "uint256"
        }
      ],
      "stateMutability": "view",
      "type": "function"
    },
    {
      "inputs": [],
      "name": "decimals",
      "outputs": [
        {
          "internalType": "uint8",
          "name": "",
          "type": "uint8"
        }
      ],
      "stateMutability": "view",
      "type": "function"
    },
    {
      "inputs": [
        {
          "internalType": "address",
          "name": "spender",
          "type": "address"
        },
        {
          "internalType": "uint256",
          "name": "subtractedValue",
          "type": "uint256"
        }
      ],
      "name": "decreaseAllowance",
      "outputs": [
        {
          "internalType": "bool",
          "name": "",
          "type": "bool"
        }
      ],
      "stateMutability": "nonpayable",
      "type": "function"
    },
    {
      "inputs": [
        {
          "internalType": "bytes32",
          "name": "role",
          "type": "bytes32"
        }
      ],
      "name": "getRoleAdmin",
      "outputs": [
        {
          "internalType": "bytes32",
          "name": "",
          "type": "bytes32"
        }
      ],
      "stateMutability": "view",
      "type": "function"
    },
    {
      "inputs": [
        {
          "internalType": "bytes32",
          "name": "role",
          "type": "bytes32"
        },
        {
          "internalType": "address",
          "name": "account",
          "type": "address"
        }
      ],
      "name": "grantRole",
      "outputs": [],
      "stateMutability": "nonpayable",
      "type": "function"
    },
    {
      "inputs": [
        {
          "internalType": "bytes32",
          "name": "role",
          "type": "bytes32"
        },
        {
          "internalType": "address",
          "name": "account",
          "type": "address"
        }
      ],
      "name": "hasRole",
      "outputs": [
        {
          "internalType": "bool",
          "name": "",
          "type": "bool"
        }
      ],
      "stateMutability": "view",
      "type": "function"
    },
    {
      "inputs": [
        {
          "internalType": "address",
          "name": "spender",
          "type": "address"
        },
        {
          "internalType": "uint256",
          "name": "addedValue",
          "type": "uint256"
        }
      ],
      "name": "increaseAllowance",
      "outputs": [
        {
          "internalType": "bool",
          "name": "",
          "type": "bool"
        }
      ],
      "stateMutability": "nonpayable",
      "type": "function"
    },
    {
      "inputs": [
        {
          "internalType": "address",
          "name": "to",
          "type": "address"
        },
        {
          "internalType": "uint256",
          "name": "amount",
          "type": "uint256"
        }
      ],
      "name": "mint",
      "outputs": [],
      "stateMutability": "nonpayable",
      "type": "function"
    },
    {
      "inputs": [],
      "name": "name",
      "outputs": [
        {
          "internalType": "string",
          "name": "",
          "type": "string"
        }
      ],
      "stateMutability": "view",
      "type": "function"
    },
    {
      "inputs": [],
      "name": "pause",
      "outputs": [],
      "stateMutability": "nonpayable",
      "type": "function"
    },
    {
      "inputs": [],
      "name": "paused",
      "outputs": [
        {
          "internalType": "bool",
          "name": "",
          "type": "bool"
        }
      ],
      "stateMutability": "view",
      "type": "function"
    },
    {
      "inputs": [
        {
          "internalType": "bytes32",
          "name": "role",
          "type": "bytes32"
        },
        {
          "internalType": "address",
          "name": "account",
          "type": "address"
        }
      ],
      "name": "renounceRole",
      "outputs": [],
      "stateMutability": "nonpayable",
      "type": "function"
    },
    {
      "inputs": [
        {
          "internalType": "bytes32",
          "name": "role",
          "type": "bytes32"
        },
        {
          "internalType": "address",
          "name": "account",
          "type": "address"
        }
      ],
      "name": "revokeRole",
      "outputs": [],
      "stateMutability": "nonpayable",
      "type": "function"
    },
    {
      "inputs": [
        {
          "internalType": "bytes4",
          "name": "interfaceId",
          "type": "bytes4"
        }
      ],
      "name": "supportsInterface",
      "outputs": [
        {
          "internalType": "bool",
          "name": "",
          "type": "bool"
        }
      ],
      "stateMutability": "view",
      "type": "function"
    },
    {
      "inputs": [],
      "name": "symbol",
      "outputs": [
        {
          "internalType": "string",
          "name": "",
          "type": "string"
        }
      ],
      "stateMutability": "view",
      "type": "function"
    },
    {
      "inputs": [],
      "name": "totalSupply",
      "outputs": [
        {
          "internalType": "uint256",
          "name": "",
          "type": "uint256"
        }
      ],
      "stateMutability": "view",
      "type": "function"
    },
    {
      "inputs": [
        {
          "internalType": "address",
          "name": "to",
          "type": "address"
        },
        {
          "internalType": "uint256",
          "name": "amount",
          "type": "uint256"
        }
      ],
      "name": "transfer",
      "outputs": [
        {
          "internalType": "bool",
          "name": "",
          "type": "bool"
        }
      ],
      "stateMutability": "nonpayable",
      "type": "function"
    },
    {
      "inputs": [
        {
          "internalType": "address",
          "name": "from",
          "type": "address"
        },
        {
          "internalType": "address",
          "name": "to",
          "type": "address"
        },
        {
          "internalType": "uint256",
          "name": "amount",
          "type": "uint256"
        }
      ],
      "name": "transferFrom",
      "outputs": [
        {
          "internalType": "bool",
          "name": "",
          "type": "bool"
        }
      ],
      "stateMutability": "nonpayable",
      "type": "function"
    },
    {
      "inputs": [],
      "name": "unpause",
      "outputs": [],
      "stateMutability": "nonpayable",
      "type": "function"
    }
  ],
  "bytecode": "0x60a06040523480156200001157600080fd5b5060405162003cba38038062003cba8339818101604052810190620000379190620007ea565b81848481600390816200004b919062000adb565b5080600490816200005d919062000adb565b50505060008111620000a6576040517f08c379a00000000000000000000000000000000000000000000000000000000081526004016200009d9062000c23565b60405180910390fd5b8060808181525050506000600560006101000a81548160ff021916908315150217905550620000df6000801b33620001f560201b60201c565b620001117f9f2df0fed2c77648de5860a4cc508cd0818c85b8b8a1ab4ceeef8d981c8956a633620001f560201b60201c565b620001437f65d7a28e3265b37a6474929f336521b332c1681b933f6cb9f3376673440d862a33620001f560201b60201c565b8181111562000189576040517f08c379a0000000000000000000000000000000000000000000000000000000008152600401620001809062000c95565b60405180910390fd5b6200019b3382620002e760201b60201c565b3373ffffffffffffffffffffffffffffffffffffffff167f3f2c9d57c068687834f0de942a9babb9e5acab57d516d3480a3c16ee165a427382604051620001e3919062000cc8565b60405180910390a25050505062000ecb565b620002078282620002fd60201b60201c565b620002e35760016006600084815260200190815260200160002060000160008373ffffffffffffffffffffffffffffffffffffffff1673ffffffffffffffffffffffffffffffffffffffff16815260200190815260200160002060006101000a81548160ff021916908315150217905550620002886200036860201b60201c565b73ffffffffffffffffffffffffffffffffffffffff168173ffffffffffffffffffffffffffffffffffffffff16837f2f8788117e7eff1d82e926ec794901d17c78024a50270940304540a733656f0d60405160405180910390a45b5050565b620002f982826200037060201b60201c565b5050565b60006006600084815260200190815260200160002060000160008373ffffffffffffffffffffffffffffffffffffffff1673ffffffffffffffffffffffffffffffffffffffff16815260200190815260200160002060009054906101000a900460ff16905092915050565b600033905090565b62000380620003f760201b60201c565b81620003916200040160201b60201c565b6200039d919062000d14565b1115620003e1576040517f08c379a0000000000000000000000000000000000000000000000000000000008152600401620003d89062000d9f565b60405180910390fd5b620003f382826200040b60201b60201c565b5050565b6000608051905090565b6000600254905090565b600073ffffffffffffffffffffffffffffffffffffffff168273ffffffffffffffffffffffffffffffffffffffff16036200047d576040517f08c379a0000000000000000000000000000000000000000000000000000000008152600401620004749062000e11565b60405180910390fd5b62000491600083836200057860201b60201c565b8060026000828254620004a5919062000d14565b92505081905550806000808473ffffffffffffffffffffffffffffffffffffffff1673ffffffffffffffffffffffffffffffffffffffff168152602001908152602001600020600082825401925050819055508173ffffffffffffffffffffffffffffffffffffffff16600073ffffffffffffffffffffffffffffffffffffffff167fddf252ad1be2c89b69c2b068fc378daa952ba7f163c4a11628f55a4df523b3ef8360405162000558919062000cc8565b60405180910390a362000574600083836200059060201b60201c565b5050565b6200058b8383836200059560201b60201c565b505050565b505050565b620005a88383836200060060201b60201c565b620005b86200060560201b60201c565b15620005fb576040517f08c379a0000000000000000000000000000000000000000000000000000000008152600401620005f29062000ea9565b60405180910390fd5b505050565b505050565b6000600560009054906101000a900460ff16905090565b6000604051905090565b600080fd5b600080fd5b600080fd5b600080fd5b6000601f19601f8301169050919050565b7f4e487b7100000000000000000000000000000000000000000000000000000000600052604160045260246000fd5b62000685826200063a565b810181811067ffffffffffffffff82111715620006a757620006a66200064b565b5b80604052505050565b6000620006bc6200061c565b9050620006ca82826200067a565b919050565b600067ffffffffffffffff821115620006ed57620006ec6200064b565b5b620006f8826200063a565b9050602081019050919050565b60005b838110156200072557808201518184015260208101905062000708565b60008484015250505050565b6000620007486200074284620006cf565b620006b0565b90508281526020810184848401111562000767576200076662000635565b5b6200077484828562000705565b509392505050565b600082601f83011262000794576200079362000630565b5b8151620007a684826020860162000731565b91505092915050565b6000819050919050565b620007c481620007af565b8114620007d057600080fd5b50565b600081519050620007e481620007b9565b92915050565b6000806000806080858703121562000807576200080662000626565b5b600085015167ffffffffffffffff8111156200082857620008276200062b565b5b62000836878288016200077c565b945050602085015167ffffffffffffffff8111156200085a57620008596200062b565b5b62000868878288016200077c565b93505060406200087b87828801620007d3565b92505060606200088e87828801620007d3565b91505092959194509250565b600081519050919050565b7f4e487b7100000000000000000000000000000000000000000000000000000000600052602260045260246000fd5b60006002820490506001821680620008ed57607f821691505b602082108103620009035762000902620008a5565b5b50919050565b60008190508160005260206000209050919050565b60006020601f8301049050919050565b600082821b905092915050565b6000600883026200096d7fffffffffffffffffffffffffffffffffffffffffffffffffffffffffffffffff826200092e565b6200097986836200092e565b95508019841693508086168417925050509392505050565b6000819050919050565b6000620009bc620009b6620009b084620007af565b62000991565b620007af565b9050919050565b6000819050919050565b620009d8836200099b565b620009f0620009e782620009c3565b8484546200093b565b825550505050565b600090565b62000a07620009f8565b62000a14818484620009cd565b505050565b5b8181101562000a3c5762000a30600082620009fd565b60018101905062000a1a565b5050565b601f82111562000a8b5762000a558162000909565b62000a60846200091e565b8101602085101562000a70578190505b62000a8862000a7f856200091e565b83018262000a19565b50505b505050565b600082821c905092915050565b600062000ab06000198460080262000a90565b1980831691505092915050565b600062000acb838362000a9d565b9150826002028217905092915050565b62000ae6826200089a565b67ffffffffffffffff81111562000b025762000b016200064b565b5b62000b0e8254620008d4565b62000b1b82828562000a40565b600060209050601f83116001811462000b53576000841562000b3e578287015190505b62000b4a858262000abd565b86555062000bba565b601f19841662000b638662000909565b60005b8281101562000b8d5784890151825560018201915060208501945060208101905062000b66565b8683101562000bad578489015162000ba9601f89168262000a9d565b8355505b6001600288020188555050505b505050505050565b600082825260208201905092915050565b7f45524332304361707065643a2063617020697320300000000000000000000000600082015250565b600062000c0b60158362000bc2565b915062000c188262000bd3565b602082019050919050565b6000602082019050818103600083015262000c3e8162000bfc565b9050919050565b7f496e697469616c20737570706c79206578636565647320636170000000000000600082015250565b600062000c7d601a8362000bc2565b915062000c8a8262000c45565b602082019050919050565b6000602082019050818103600083015262000cb08162000c6e565b9050919050565b62000cc281620007af565b82525050565b600060208201905062000cdf600083018462000cb7565b92915050565b7f4e487b7100000000000000000000000000000000000000000000000000000000600052601160045260246000fd5b600062000d2182620007af565b915062000d2e83620007af565b925082820190508082111562000d495762000d4862000ce5565b5b92915050565b7f45524332304361707065643a2063617020657863656564656400000000000000600082015250565b600062000d8760198362000bc2565b915062000d948262000d4f565b602082019050919050565b6000602082019050818103600083015262000dba8162000d78565b9050919050565b7f45524332303a206d696e7420746f20746865207a65726f206164647265737300600082015250565b600062000df9601f8362000bc2565b915062000e068262000dc1565b602082019050919050565b6000602082019050818103600083015262000e2c8162000dea565b9050919050565b7f45524332305061757361626c653a20746f6b656e207472616e7366657220776860008201527f696c652070617573656400000000000000000000000000000000000000000000602082015250565b600062000e91602a8362000bc2565b915062000e9e8262000e33565b604082019050919050565b6000602082019050818103600083015262000ec48162000e82565b9050919050565b608051612dd362000ee7600039600061070e0152612dd36000f3fe608060405234801561001057600080fd5b50600436106101a95760003560e01c806342966c68116100f9578063a217fddf11610097578063d539139311610071578063d5391393146104d0578063d547741f146104ee578063dd62ed3e1461050a578063e63ab1e91461053a576101a9565b8063a217fddf14610452578063a457c2d714610470578063a9059cbb146104a0576101a9565b806379cc6790116100d357806379cc6790146103de5780638456cb59146103fa57806391d148541461040457806395d89b4114610434576101a9565b806342966c68146103745780635c975abb1461039057806370a08231146103ae576101a9565b80632f2ff15d1161016657806336568abe1161014057806336568abe14610302578063395093511461031e5780633f4ba83a1461034e57806340c10f1914610358576101a9565b80632f2ff15d146102aa578063313ce567146102c6578063355274ea146102e4576101a9565b806301ffc9a7146101ae57806306fdde03146101de578063095ea7b3146101fc57806318160ddd1461022c57806323b872dd1461024a578063248a9ca31461027a575b600080fd5b6101c860048036038101906101c39190611dc1565b610558565b6040516101d59190611e09565b60405180910390f35b6101e66105d2565b6040516101f39190611eb4565b60405180910390f35b61021660048036038101906102119190611f6a565b610664565b6040516102239190611e09565b60405180910390f35b610234610687565b6040516102419190611fb9565b60405180910390f35b610264600480360381019061025f9190611fd4565b610691565b6040516102719190611e09565b60405180910390f35b610294600480360381019061028f919061205d565b6106c0565b6040516102a19190612099565b60405180910390f35b6102c460048036038101906102bf91906120b4565b6106e0565b005b6102ce610701565b6040516102db9190612110565b60405180910390f35b6102ec61070a565b6040516102f99190611fb9565b60405180910390f35b61031c600480360381019061031791906120b4565b610732565b005b61033860048036038101906103339190611f6a565b610785565b6040516103459190611e09565b60405180910390f35b6103566107bc565b005b610372600480360381019061036d9190611f6a565b610834565b005b61038e6004803603810190610389919061212b565b61092a565b005b610398610984565b6040516103a59190611e09565b60405180910390f35b6103c860048036038101906103c39190612158565b61099b565b6040516103d59190611fb9565b60405180910390f35b6103f860048036038101906103f39190611f6a565b6109e3565b005b610402610a3f565b005b61041e600480360381019061041991906120b4565b610ab7565b60405161042b9190611e09565b60405180910390f35b61043c610b22565b6040516104499190611eb4565b60405180910390f35b61045a610bb4565b6040516104679190612099565b60405180910390f35b61048a60048036038101906104859190611f6a565b610bbb565b6040516104979190611e09565b60405180910390f35b6104ba60048036038101906104b59190611f6a565b610c32565b6040516104c79190611e09565b60405180910390f35b6104d8610c55565b6040516104e59190612099565b60405180910390f35b610508600480360381019061050391906120b4565b610c79565b005b610524600480360381019061051f9190612185565b610c9a565b6040516105319190611fb9565b60405180910390f35b610542610d21565b60405161054f9190612099565b60405180910390f35b60007f7965db0b000000000000000000000000000000000000000000000000000000007bffffffffffffffffffffffffffffffffffffffffffffffffffffffff1916827bffffffffffffffffffffffffffffffffffffffffffffffffffffffff191614806105cb57506105ca82610d45565b5b9050919050565b6060600380546105e1906121f4565b80601f016020809104026020016040519081016040528092919081815260200182805461060d906121f4565b801561065a5780601f1061062f5761010080835404028352916020019161065a565b820191906000526020600020905b81548152906001019060200180831161063d57829003601f168201915b5050505050905090565b60008061066f610daf565b905061067c818585610db7565b600191505092915050565b6000600254905090565b60008061069c610daf565b90506106a9858285610f80565b6106b485858561100c565b60019150509392505050565b600060066000838152602001908152602001600020600101549050919050565b6106e9826106c0565b6106f281611282565b6106fc8383611296565b505050565b60006012905090565b60007f0000000000000000000000000000000000000000000000000000000000000000905090565b6000801b8203610777576040517f08c379a000000000000000000000000000000000000000000000000000000000815260040161076e90612271565b60405180910390fd5b6107818282611377565b5050565b600080610790610daf565b90506107b18185856107a28589610c9a565b6107ac91906122c0565b610db7565b600191505092915050565b7f65d7a28e3265b37a6474929f336521b332c1681b933f6cb9f3376673440d862a6107e681611282565b6107ee6113fa565b3373ffffffffffffffffffffffffffffffffffffffff167ff38578ed892ce2ce655ca8ae03c73464ad74915a1331a9b4085e637534daeedf60405160405180910390a250565b7f9f2df0fed2c77648de5860a4cc508cd0818c85b8b8a1ab4ceeef8d981c8956a661085e81611282565b600073ffffffffffffffffffffffffffffffffffffffff168373ffffffffffffffffffffffffffffffffffffffff16036108cd576040517f08c379a00000000000000000000000000000000000000000000000000000000081526004016108c490612340565b60405180910390fd5b6108d7838361145d565b8273ffffffffffffffffffffffffffffffffffffffff167f3f2c9d57c068687834f0de942a9babb9e5acab57d516d3480a3c16ee165a42738360405161091d9190611fb9565b60405180910390a2505050565b6109338161146b565b3373ffffffffffffffffffffffffffffffffffffffff167ffd38818f5291bf0bb3a2a48aadc06ba8757865d1dabd804585338aab3009dcb6826040516109799190611fb9565b60405180910390a250565b6000600560009054906101000a900460ff16905090565b60008060008373ffffffffffffffffffffffffffffffffffffffff1673ffffffffffffffffffffffffffffffffffffffff168152602001908152602001600020549050919050565b6109ed828261147f565b8173ffffffffffffffffffffffffffffffffffffffff167ffd38818f5291bf0bb3a2a48aadc06ba8757865d1dabd804585338aab3009dcb682604051610a339190611fb9565b60405180910390a25050565b7f65d7a28e3265b37a6474929f336521b332c1681b933f6cb9f3376673440d862a610a6981611282565b610a7161149f565b3373ffffffffffffffffffffffffffffffffffffffff167ff017c0de579727a3cd3ee18077ee8b4c43bf21892985952d1d5a0d52f983502d60405160405180910390a250565b60006006600084815260200190815260200160002060000160008373ffffffffffffffffffffffffffffffffffffffff1673ffffffffffffffffffffffffffffffffffffffff16815260200190815260200160002060009054906101000a900460ff16905092915050565b606060048054610b31906121f4565b80601f0160208091040260200160405190810160405280929190818152602001828054610b5d906121f4565b8015610baa5780601f10610b7f57610100808354040283529160200191610baa565b820191906000526020600020905b815481529060010190602001808311610b8d57829003601f168201915b5050505050905090565b6000801b81565b600080610bc6610daf565b90506000610bd48286610c9a565b905083811015610c19576040517f08c379a0000000000000000000000000000000000000000000000000000000008152600401610c10906123d2565b60405180910390fd5b610c268286868403610db7565b60019250505092915050565b600080610c3d610daf565b9050610c4a81858561100c565b600191505092915050565b7f9f2df0fed2c77648de5860a4cc508cd0818c85b8b8a1ab4ceeef8d981c8956a681565b610c82826106c0565b610c8b81611282565b610c958383611502565b505050565b6000600160008473ffffffffffffffffffffffffffffffffffffffff1673ffffffffffffffffffffffffffffffffffffffff16815260200190815260200160002060008373ffffffffffffffffffffffffffffffffffffffff1673ffffffffffffffffffffffffffffffffffffffff16815260200190815260200160002054905092915050565b7f65d7a28e3265b37a6474929f336521b332c1681b933f6cb9f3376673440d862a81565b60007f01ffc9a7000000000000000000000000000000000000000000000000000000007bffffffffffffffffffffffffffffffffffffffffffffffffffffffff1916827bffffffffffffffffffffffffffffffffffffffffffffffffffffffff1916149050919050565b600033905090565b600073ffffffffffffffffffffffffffffffffffffffff168373ffffffffffffffffffffffffffffffffffffffff1603610e26576040517f08c379a0000000000000000000000000000000000000000000000000000000008152600401610e1d90612464565b60405180910390fd5b600073ffffffffffffffffffffffffffffffffffffffff168273ffffffffffffffffffffffffffffffffffffffff1603610e95576040517f08c379a0000000000000000000000000000000000000000000000000000000008152600401610e8c906124f6565b60405180910390fd5b80600160008573ffffffffffffffffffffffffffffffffffffffff1673ffffffffffffffffffffffffffffffffffffffff16815260200190815260200160002060008473ffffffffffffffffffffffffffffffffffffffff1673ffffffffffffffffffffffffffffffffffffffff168152602001908152602001600020819055508173ffffffffffffffffffffffffffffffffffffffff168373ffffffffffffffffffffffffffffffffffffffff167f8c5be1e5ebec7d5bd14f71427d1e84f3dd0314c0f7b2291e5b200ac8c7c3b92583604051610f739190611fb9565b60405180910390a3505050565b6000610f8c8484610c9a565b90507fffffffffffffffffffffffffffffffffffffffffffffffffffffffffffffffff81146110065781811015610ff8576040517f08c379a0000000000000000000000000000000000000000000000000000000008152600401610fef90612562565b60405180910390fd5b6110058484848403610db7565b5b50505050565b600073ffffffffffffffffffffffffffffffffffffffff168373ffffffffffffffffffffffffffffffffffffffff160361107b576040517f08c379a0000000000000000000000000000000000000000000000000000000008152600401611072906125f4565b60405180910390fd5b600073ffffffffffffffffffffffffffffffffffffffff168273ffffffffffffffffffffffffffffffffffffffff16036110ea576040517f08c379a00000000000000000000000000000000000000000000000000000000081526004016110e190612686565b60405180910390fd5b6110f58383836115e4565b60008060008573ffffffffffffffffffffffffffffffffffffffff1673ffffffffffffffffffffffffffffffffffffffff1681526020019081526020016000205490508181101561117b576040517f08c379a000000000000000000000000000000000000000000000000000000000815260040161117290612718565b60405180910390fd5b8181036000808673ffffffffffffffffffffffffffffffffffffffff1673ffffffffffffffffffffffffffffffffffffffff16815260200190815260200160002081905550816000808573ffffffffffffffffffffffffffffffffffffffff1673ffffffffffffffffffffffffffffffffffffffff168152602001908152602001600020600082825401925050819055508273ffffffffffffffffffffffffffffffffffffffff168473ffffffffffffffffffffffffffffffffffffffff167fddf252ad1be2c89b69c2b068fc378daa952ba7f163c4a11628f55a4df523b3ef846040516112699190611fb9565b60405180910390a361127c8484846115f4565b50505050565b6112938161128e610daf565b6115f9565b50565b6112a08282610ab7565b6113735760016006600084815260200190815260200160002060000160008373ffffffffffffffffffffffffffffffffffffffff1673ffffffffffffffffffffffffffffffffffffffff16815260200190815260200160002060006101000a81548160ff021916908315150217905550611318610daf565b73ffffffffffffffffffffffffffffffffffffffff168173ffffffffffffffffffffffffffffffffffffffff16837f2f8788117e7eff1d82e926ec794901d17c78024a50270940304540a733656f0d60405160405180910390a45b5050565b61137f610daf565b73ffffffffffffffffffffffffffffffffffffffff168173ffffffffffffffffffffffffffffffffffffffff16146113ec576040517f08c379a00000000000000000000000000000000000000000000000000000000081526004016113e3906127aa565b60405180910390fd5b6113f68282611502565b5050565b61140261167e565b6000600560006101000a81548160ff0219169083151502179055507f5db9ee0a495bf2e6ff9c91a7834c1ba4fdd244a5e8aa4e537bd38aeae4b073aa611446610daf565b60405161145391906127d9565b60405180910390a1565b61146782826116c7565b5050565b61147c611476610daf565b82611731565b50565b6114918261148b610daf565b83610f80565b61149b8282611731565b5050565b6114a76118fe565b6001600560006101000a81548160ff0219169083151502179055507f62e78cea01bee320cd4e420270b5ea74000d11b0c9f74754ebdbfc544b05a2586114eb610daf565b6040516114f891906127d9565b60405180910390a1565b61150c8282610ab7565b156115e05760006006600084815260200190815260200160002060000160008373ffffffffffffffffffffffffffffffffffffffff1673ffffffffffffffffffffffffffffffffffffffff16815260200190815260200160002060006101000a81548160ff021916908315150217905550611585610daf565b73ffffffffffffffffffffffffffffffffffffffff168173ffffffffffffffffffffffffffffffffffffffff16837ff6391f5c32d9c69d2a47ea670b442974b53935d1edc7fd64eb21e047a839171b60405160405180910390a45b5050565b6115ef838383611948565b505050565b505050565b6116038282610ab7565b61167a57611610816119a0565b61161e8360001c60206119cd565b60405160200161162f9291906128c8565b6040516020818303038152906040526040517f08c379a00000000000000000000000000000000000000000000000000000000081526004016116719190611eb4565b60405180910390fd5b5050565b611686610984565b6116c5576040517f08c379a00000000000000000000000000000000000000000000000000000000081526004016116bc9061294e565b60405180910390fd5b565b6116cf61070a565b816116d8610687565b6116e291906122c0565b1115611723576040517f08c379a000000000000000000000000000000000000000000000000000000000815260040161171a906129ba565b60405180910390fd5b61172d8282611c09565b5050565b600073ffffffffffffffffffffffffffffffffffffffff168273ffffffffffffffffffffffffffffffffffffffff16036117a0576040517f08c379a000000000000000000000000000000000000000000000000000000000815260040161179790612a4c565b60405180910390fd5b6117ac826000836115e4565b60008060008473ffffffffffffffffffffffffffffffffffffffff1673ffffffffffffffffffffffffffffffffffffffff16815260200190815260200160002054905081811015611832576040517f08c379a000000000000000000000000000000000000000000000000000000000815260040161182990612ade565b60405180910390fd5b8181036000808573ffffffffffffffffffffffffffffffffffffffff1673ffffffffffffffffffffffffffffffffffffffff1681526020019081526020016000208190555081600260008282540392505081905550600073ffffffffffffffffffffffffffffffffffffffff168373ffffffffffffffffffffffffffffffffffffffff167fddf252ad1be2c89b69c2b068fc378daa952ba7f163c4a11628f55a4df523b3ef846040516118e59190611fb9565b60405180910390a36118f9836000846115f4565b505050565b611906610984565b15611946576040517f08c379a000000000000000000000000000000000000000000000000000000000815260040161193d90612b4a565b60405180910390fd5b565b611953838383611d5f565b61195b610984565b1561199b576040517f08c379a000000000000000000000000000000000000000000000000000000000815260040161199290612bdc565b60405180910390fd5b505050565b60606119c68273ffffffffffffffffffffffffffffffffffffffff16601460ff166119cd565b9050919050565b6060600060028360026119e09190612bfc565b6119ea91906122c0565b67ffffffffffffffff811115611a0357611a02612c3e565b5b6040519080825280601f01601f191660200182016040528015611a355781602001600182028036833780820191505090505b5090507f300000000000000000000000000000000000000000000000000000000000000081600081518110611a6d57611a6c612c6d565b5b60200101907effffffffffffffffffffffffffffffffffffffffffffffffffffffffffffff1916908160001a9053507f780000000000000000000000000000000000000000000000000000000000000081600181518110611ad157611ad0612c6d565b5b60200101907effffffffffffffffffffffffffffffffffffffffffffffffffffffffffffff1916908160001a90535060006001846002611b119190612bfc565b611b1b91906122c0565b90505b6001811115611bbb577f3031323334353637383961626364656600000000000000000000000000000000600f861660108110611b5d57611b5c612c6d565b5b1a60f81b828281518110611b7457611b73612c6d565b5b60200101907effffffffffffffffffffffffffffffffffffffffffffffffffffffffffffff1916908160001a905350600485901c945080611bb490612c9c565b9050611b1e565b5060008414611bff576040517f08c379a0000000000000000000000000000000000000000000000000000000008152600401611bf690612d11565b60405180910390fd5b8091505092915050565b600073ffffffffffffffffffffffffffffffffffffffff168273ffffffffffffffffffffffffffffffffffffffff1603611c78576040517f08c379a0000000000000000000000000000000000000000000000000000000008152600401611c6f90612d7d565b60405180910390fd5b611c84600083836115e4565b8060026000828254611c9691906122c0565b92505081905550806000808473ffffffffffffffffffffffffffffffffffffffff1673ffffffffffffffffffffffffffffffffffffffff168152602001908152602001600020600082825401925050819055508173ffffffffffffffffffffffffffffffffffffffff16600073ffffffffffffffffffffffffffffffffffffffff167fddf252ad1be2c89b69c2b068fc378daa952ba7f163c4a11628f55a4df523b3ef83604051611d479190611fb9565b60405180910390a3611d5b600083836115f4565b5050565b505050565b600080fd5b60007fffffffff0000000000000000000000000000000000000000000000000000000082169050919050565b611d9e81611d69565b8114611da957600080fd5b50565b600081359050611dbb81611d95565b92915050565b600060208284031215611dd757611dd6611d64565b5b6000611de584828501611dac565b91505092915050565b60008115159050919050565b611e0381611dee565b82525050565b6000602082019050611e1e6000830184611dfa565b92915050565b600081519050919050565b600082825260208201905092915050565b60005b83811015611e5e578082015181840152602081019050611e43565b60008484015250505050565b6000601f19601f8301169050919050565b6000611e8682611e24565b611e908185611e2f565b9350611ea0818560208601611e40565b611ea981611e6a565b840191505092915050565b60006020820190508181036000830152611ece8184611e7b565b905092915050565b600073ffffffffffffffffffffffffffffffffffffffff82169050919050565b6000611f0182611ed6565b9050919050565b611f1181611ef6565b8114611f1c57600080fd5b50565b600081359050611f2e81611f08565b92915050565b6000819050919050565b611f4781611f34565b8114611f5257600080fd5b50565b600081359050611f6481611f3e565b92915050565b60008060408385031215611f8157611f80611d64565b5b6000611f8f85828601611f1f565b9250506020611fa085828601611f55565b9150509250929050565b611fb381611f34565b82525050565b6000602082019050611fce6000830184611faa565b92915050565b600080600060608486031215611fed57611fec611d64565b5b6000611ffb86828701611f1f565b935050602061200c86828701611f1f565b925050604061201d86828701611f55565b9150509250925092565b6000819050919050565b61203a81612027565b811461204557600080fd5b50565b60008135905061205781612031565b92915050565b60006020828403121561207357612072611d64565b5b600061208184828501612048565b91505092915050565b61209381612027565b82525050565b60006020820190506120ae600083018461208a565b92915050565b600080604083850312156120cb576120ca611d64565b5b60006120d985828601612048565b92505060206120ea85828601611f1f565b9150509250929050565b600060ff82169050919050565b61210a816120f4565b82525050565b60006020820190506121256000830184612101565b92915050565b60006020828403121561214157612140611d64565b5b600061214f84828501611f55565b91505092915050565b60006020828403121561216e5761216d611d64565b5b600061217c84828501611f1f565b91505092915050565b6000806040838503121561219c5761219b611d64565b5b60006121aa85828601611f1f565b92505060206121bb85828601611f1f565b9150509250929050565b7f4e487b7100000000000000000000000000000000000000000000000000000000600052602260045260246000fd5b6000600282049050600182168061220c57607f821691505b60208210810361221f5761221e6121c5565b5b50919050565b7f43616e6e6f742072656e6f756e63652061646d696e20726f6c65000000000000600082015250565b600061225b601a83611e2f565b915061226682612225565b602082019050919050565b6000602082019050818103600083015261228a8161224e565b9050919050565b7f4e487b7100000000000000000000000000000000000000000000000000000000600052601160045260246000fd5b60006122cb82611f34565b91506122d683611f34565b92508282019050808211156122ee576122ed612291565b5b92915050565b7f43616e6e6f74206d696e7420746f207a65726f20616464726573730000000000600082015250565b600061232a601b83611e2f565b9150612335826122f4565b602082019050919050565b600060208201905081810360008301526123598161231d565b9050919050565b7f45524332303a2064656372656173656420616c6c6f77616e63652062656c6f7760008201527f207a65726f000000000000000000000000000000000000000000000000000000602082015250565b60006123bc602583611e2f565b91506123c782612360565b604082019050919050565b600060208201905081810360008301526123eb816123af565b9050919050565b7f45524332303a20617070726f76652066726f6d20746865207a65726f2061646460008201527f7265737300000000000000000000000000000000000000000000000000000000602082015250565b600061244e602483611e2f565b9150612459826123f2565b604082019050919050565b6000602082019050818103600083015261247d81612441565b9050919050565b7f45524332303a20617070726f766520746f20746865207a65726f20616464726560008201527f7373000000000000000000000000000000000000000000000000000000000000602082015250565b60006124e0602283611e2f565b91506124eb82612484565b604082019050919050565b6000602082019050818103600083015261250f816124d3565b9050919050565b7f45524332303a20696e73756666696369656e7420616c6c6f77616e6365000000600082015250565b600061254c601d83611e2f565b915061255782612516565b602082019050919050565b6000602082019050818103600083015261257b8161253f565b9050919050565b7f45524332303a207472616e736665722066726f6d20746865207a65726f20616460008201527f6472657373000000000000000000000000000000000000000000000000000000602082015250565b60006125de602583611e2f565b91506125e982612582565b604082019050919050565b6000602082019050818103600083015261260d816125d1565b9050919050565b7f45524332303a207472616e7366657220746f20746865207a65726f206164647260008201527f6573730000000000000000000000000000000000000000000000000000000000602082015250565b6000612670602383611e2f565b915061267b82612614565b604082019050919050565b6000602082019050818103600083015261269f81612663565b9050919050565b7f45524332303a207472616e7366657220616d6f756e742065786365656473206260008201527f616c616e63650000000000000000000000000000000000000000000000000000602082015250565b6000612702602683611e2f565b915061270d826126a6565b604082019050919050565b60006020820190508181036000830152612731816126f5565b9050919050565b7f416363657373436f6e74726f6c3a2063616e206f6e6c792072656e6f756e636560008201527f20726f6c657320666f722073656c660000000000000000000000000000000000602082015250565b6000612794602f83611e2f565b915061279f82612738565b604082019050919050565b600060208201905081810360008301526127c381612787565b9050919050565b6127d381611ef6565b82525050565b60006020820190506127ee60008301846127ca565b92915050565b600081905092915050565b7f416363657373436f6e74726f6c3a206163636f756e7420000000000000000000600082015250565b60006128356017836127f4565b9150612840826127ff565b601782019050919050565b600061285682611e24565b61286081856127f4565b9350612870818560208601611e40565b80840191505092915050565b7f206973206d697373696e6720726f6c6520000000000000000000000000000000600082015250565b60006128b26011836127f4565b91506128bd8261287c565b601182019050919050565b60006128d382612828565b91506128df828561284b565b91506128ea826128a5565b91506128f6828461284b565b91508190509392505050565b7f5061757361626c653a206e6f7420706175736564000000000000000000000000600082015250565b6000612938601483611e2f565b915061294382612902565b602082019050919050565b600060208201905081810360008301526129678161292b565b9050919050565b7f45524332304361707065643a2063617020657863656564656400000000000000600082015250565b60006129a4601983611e2f565b91506129af8261296e565b602082019050919050565b600060208201905081810360008301526129d381612997565b9050919050565b7f45524332303a206275726e2066726f6d20746865207a65726f2061646472657360008201527f7300000000000000000000000000000000000000000000000000000000000000602082015250565b6000612a36602183611e2f565b9150612a41826129da565b604082019050919050565b60006020820190508181036000830152612a6581612a29565b9050919050565b7f45524332303a206275726e20616d6f756e7420657863656564732062616c616e60008201527f6365000000000000000000000000000000000000000000000000000000000000602082015250565b6000612ac8602283611e2f565b9150612ad382612a6c565b604082019050919050565b60006020820190508181036000830152612af781612abb565b9050919050565b7f5061757361626c653a2070617573656400000000000000000000000000000000600082015250565b6000612b34601083611e2f565b9150612b3f82612afe565b602082019050919050565b60006020820190508181036000830152612b6381612b27565b9050919050565b7f45524332305061757361626c653a20746f6b656e207472616e7366657220776860008201527f696c652070617573656400000000000000000000000000000000000000000000602082015250565b6000612bc6602a83611e2f565b9150612bd182612b6a565b604082019050919050565b60006020820190508181036000830152612bf581612bb9565b9050919050565b6000612c0782611f34565b9150612c1283611f34565b9250828202612c2081611f34565b91508282048414831517612c3757612c36612291565b5b5092915050565b7f4e487b7100000000000000000000000000000000000000000000000000000000600052604160045260246000fd5b7f4e487b7100000000000000000000000000000000000000000000000000000000600052603260045260246000fd5b6000612ca782611f34565b915060008203612cba57612cb9612291565b5b600182039050919050565b7f537472696e67733a20686578206c656e67746820696e73756666696369656e74600082015250565b6000612cfb602083611e2f565b9150612d0682612cc5565b602082019050919050565b60006020820190508181036000830152612d2a81612cee565b9050919050565b7f45524332303a206d696e7420746f20746865207a65726f206164647265737300600082015250565b6000612d67601f83611e2f565b9150612d7282612d31565b602082019050919050565b60006020820190508181036000830152612d9681612d5a565b905091905056fea26469706673582212204441a71fd36d050a35c1456a60f6dee6a68b01a171316b2cdc4892feda41756364736f6c63430008130033",
  "linkReferences": {},
  "deployedLinkReferences": {}
}